{
  "_format": "hh-sol-artifact-1",
  "contractName": "TrustAirdrop",
  "sourceName": "contracts/TrustAirdrop.sol",
  "abi": [
    {
      "anonymous": false,
      "inputs": [
        {
          "indexed": true,
          "internalType": "address",
          "name": "user",
          "type": "address"
        },
        {
          "indexed": false,
          "internalType": "enum TrustAirdrop.RiskBucket",
          "name": "bucket",
          "type": "uint8"
        },
        {
          "indexed": false,
          "internalType": "bytes32",
          "name": "analysisHash",
          "type": "bytes32"
        },
        {
          "indexed": false,
          "internalType": "uint256",
          "name": "timestamp",
          "type": "uint256"
        }
      ],
      "name": "RiskCommitted",
      "type": "event"
    },
    {
      "inputs": [
        {
          "internalType": "address",
          "name": "user",
          "type": "address"
        }
      ],
      "name": "calculateReward",
      "outputs": [
        {
          "internalType": "uint256",
          "name": "",
          "type": "uint256"
        }
      ],
      "stateMutability": "view",
      "type": "function"
    },
    {
      "inputs": [
        {
          "internalType": "address",
          "name": "user",
          "type": "address"
        },
        {
          "internalType": "uint8",
          "name": "bucket",
          "type": "uint8"
        },
        {
          "internalType": "bytes32",
          "name": "analysisHash",
          "type": "bytes32"
        }
      ],
      "name": "commitRisk",
      "outputs": [],
      "stateMutability": "nonpayable",
      "type": "function"
    },
    {
      "inputs": [
        {
          "internalType": "address",
          "name": "",
          "type": "address"
        }
      ],
      "name": "trust",
      "outputs": [
        {
          "internalType": "enum TrustAirdrop.RiskBucket",
          "name": "bucket",
          "type": "uint8"
        },
        {
          "internalType": "bytes32",
          "name": "analysisHash",
          "type": "bytes32"
        },
        {
          "internalType": "uint256",
          "name": "timestamp",
          "type": "uint256"
        },
        {
          "internalType": "bool",
          "name": "exists",
          "type": "bool"
        }
      ],
      "stateMutability": "view",
      "type": "function"
    }
  ],
  "bytecode": "0x608060405234801561001057600080fd5b50610828806100206000396000f3fe608060405234801561001057600080fd5b50600436106100415760003560e01c806336ff7c6e146100465780634637d82714610062578063d82e396214610095575b600080fd5b610060600480360381019061005b9190610538565b6100c5565b005b61007c6004803603810190610077919061058b565b61027c565b60405161008c9493929190610672565b60405180910390f35b6100af60048036038101906100aa919061058b565b6102c6565b6040516100bc91906106b7565b60405180910390f35b6002808111156100d8576100d76105b8565b5b60ff168260ff161115610120576040517f08c379a00000000000000000000000000000000000000000000000000000000081526004016101179061072f565b60405180910390fd5b60405180608001604052808360ff166002811115610141576101406105b8565b5b6002811115610153576101526105b8565b5b8152602001828152602001428152602001600115158152506000808573ffffffffffffffffffffffffffffffffffffffff1673ffffffffffffffffffffffffffffffffffffffff16815260200190815260200160002060008201518160000160006101000a81548160ff021916908360028111156101d4576101d36105b8565b5b0217905550602082015181600101556040820151816002015560608201518160030160006101000a81548160ff0219169083151502179055509050508273ffffffffffffffffffffffffffffffffffffffff167f84829c285a92666636d76738a2640e131fa25bce5f42eaa0fb96dcbd0e7a152e8360ff16600281111561025e5761025d6105b8565b5b834260405161026f9392919061074f565b60405180910390a2505050565b60006020528060005260406000206000915090508060000160009054906101000a900460ff16908060010154908060020154908060030160009054906101000a900460ff16905084565b60008060008373ffffffffffffffffffffffffffffffffffffffff1673ffffffffffffffffffffffffffffffffffffffff16815260200190815260200160002060030160009054906101000a900460ff16610356576040517f08c379a000000000000000000000000000000000000000000000000000000000815260040161034d906107d2565b60405180910390fd5b6000600281111561036a576103696105b8565b5b6000808473ffffffffffffffffffffffffffffffffffffffff1673ffffffffffffffffffffffffffffffffffffffff16815260200190815260200160002060000160009054906101000a900460ff1660028111156103cb576103ca6105b8565b5b036103d95760649050610461565b600160028111156103ed576103ec6105b8565b5b6000808473ffffffffffffffffffffffffffffffffffffffff1673ffffffffffffffffffffffffffffffffffffffff16815260200190815260200160002060000160009054906101000a900460ff16600281111561044e5761044d6105b8565b5b0361045c57603c9050610461565b601490505b919050565b600080fd5b600073ffffffffffffffffffffffffffffffffffffffff82169050919050565b60006104968261046b565b9050919050565b6104a68161048b565b81146104b157600080fd5b50565b6000813590506104c38161049d565b92915050565b600060ff82169050919050565b6104df816104c9565b81146104ea57600080fd5b50565b6000813590506104fc816104d6565b92915050565b6000819050919050565b61051581610502565b811461052057600080fd5b50565b6000813590506105328161050c565b92915050565b60008060006060848603121561055157610550610466565b5b600061055f868287016104b4565b9350506020610570868287016104ed565b925050604061058186828701610523565b9150509250925092565b6000602082840312156105a1576105a0610466565b5b60006105af848285016104b4565b91505092915050565b7f4e487b7100000000000000000000000000000000000000000000000000000000600052602160045260246000fd5b600381106105f8576105f76105b8565b5b50565b6000819050610609826105e7565b919050565b6000610619826105fb565b9050919050565b6106298161060e565b82525050565b61063881610502565b82525050565b6000819050919050565b6106518161063e565b82525050565b60008115159050919050565b61066c81610657565b82525050565b60006080820190506106876000830187610620565b610694602083018661062f565b6106a16040830185610648565b6106ae6060830184610663565b95945050505050565b60006020820190506106cc6000830184610648565b92915050565b600082825260208201905092915050565b7f496e76616c6964206275636b6574000000000000000000000000000000000000600082015250565b6000610719600e836106d2565b9150610724826106e3565b602082019050919050565b600060208201905081810360008301526107488161070c565b9050919050565b60006060820190506107646000830186610620565b610771602083018561062f565b61077e6040830184610648565b949350505050565b7f4e6f207472757374207265636f72640000000000000000000000000000000000600082015250565b60006107bc600f836106d2565b91506107c782610786565b602082019050919050565b600060208201905081810360008301526107eb816107af565b905091905056fea26469706673582212205c69a29015c3e1bfa63c256e6e1e7e1ea40cec104466a418c47c345a11302cb164736f6c63430008140033",
  "linkReferences": {},
  "deployedLinkReferences": {}
}